:02000002D0002C
:1040000000400D0044620D00000006000C00050198
:084010000401DB0700000000C1
:04401800585F0D00E0
:10401C0009480A49884208B505D0094A824202D0AB
:10402C00121A01F051FF0748074A0021121A01F039
:10403C0059FF014808BD00BFC8E50320B4610D005D
:10404C0030E6032030E60320F0E7032070B5074E7E
:10405C00074C00F071FEA41BA4080025A54200D15A
:10406C0070BD56F8043B98470135F7E788610D00A1
:10407C00AC610D0000F06AB808B500F011F8BDE8AD
:10408C00084000F01BBE00F0C5BB00F0CBBB0078B5
:10409C00B0FA80F0400970470123037070470000AC
:1040AC0038B500F049FF1549154C00F085FC00F0BF
:1040BC0043FF01210546204600F0DBF9012128468B
:1040CC0000F07EFD00F038FF0E4900F075FC00F0AA
:1040DC0033FF0A210546204600F0CBF90121284682
:1040EC0000F088FD204600F0E8F94FF47A7000F0FB
:1040FC00A3FD2046BDE8384000F0EBB96C5F0D0025
:10410C0034E603207A5F0D00F8B505460C461646DA
:10411C004AB90368C9B29B6898470746284600F01D
:10412C0052FC3844F8BD00290CDA0A2A0AD12D2198
:10413C0000F046FC61420746F2B2284600F059FCFA
:10414C000744EBE721460027F6E700002DE9F8438A
:10415C0000F0F2FE5A4CDFF88891DFF88881594F55
:10416C00594E4FF4164100F0DBFE00F0E5FE5749C6
:10417C0000F035FC204600F0EBF800F0DDFE544971
:10418C0000F02DFC00F0D8FE494600F015FC00F0C4
:10419C00D3FE002305464FF47A72204600F0E8F86F
:1041AC000A2201462846FFF7AFFF00F0C5FE414644
:1041BC0000F002FC00F0C0FE14210546204600F081
:1041CC002BF90A2201462846FFF79EFF00F0B4FEA9
:1041DC00394600F0F1FB00F0AFFE05210546204604
:1041EC0000F03CF90221284600F0F9FC00F0A4FE96
:1041FC00314600F0E1FB00F09FFE0521054620460C
:10420C0000F037F90121284600F0F4FC9FED310A4B
:10421C00204600F048F90A21204600F03EF900F053
:10422C008BFE2D4900F0DBFB00F086FE494600F0CA
:10423C00C3FB00F081FE002305464FF47A72204642
:10424C0000F096F80A2201462846FFF75DFF00F0C1
:10425C0073FE414600F0B0FB00F06EFE14210546E3
:10426C00204600F0D9F80A2201462846FFF74CFFF9
:10427C0000F062FE394600F09FFB00F05DFE052168
:10428C000546204600F0EAF80221284600F0A7FC7B
:10429C0000F052FE314600F08FFB00F04DFE052180
:1042AC000546204600F0E5F80121284600F0A2FC66
:1042BC0000F042FEBDE8F843084900F090BB00BF97
:1042CC0034E60320C95F0D00D75F0D00875F0D003A
:1042DC00925F0D0000800E45E55F0D0001600D0042
:1042EC00AF5F0D00B85F0D0010B5074C1322122103
:1042FC002046802300F016F82046044A0449BDE805
:10430C00104001F0C5B800BF34E6032030E60320AE
:10431C0021430D00704710B51021044601F0BDF883
:10432C00204610BD0271002210B58260074C04605B
:10433C004FF07E52202B4171C26005D0402B14BF30
:10434C0001230323837110BD0223FBE714600D00CE
:10435C0010B504460121007900F0F8FF60790021C6
:10436C0000F0F4FF20790021BDE8104000F0FFBF01
:10437C002DE9F84F044616461F4600F0E7F8DFF823
:10438C0094A005464FF0000B607901F009F880B15C
:10439C0000F0DCF8B0EB05086BEB4B09B04579EBA2
:1043AC00070306DA00F0D2F8CAF8000000F022FA8F
:1043BC00EAE7607900F0F4FF064648BB21796079A2
:1043CC00012201F000F8217901220746607900F002
:1043DC00FAFF217905460122607900F0F4FF80464E
:1043EC00A379B34209D92079012100F0C0FF2079CB
:1043FC00002100F0BCFF0136F2E72B0243EA074331
:10440C0043EA080547F3C01045EA0060BDE8F88FA1
:10441C000020FBE7D4E703202DE9F04107460C46CA
:10442C00B9B10025DFF830802E464FF47A720023A4
:10443C003846FFF79DFF064400F088F80135C8F8B0
:10444C00000000F0D7F9A542EFD196FBF5F0BDE8DE
:10445C00F0810846FBE700BFD4E7032010B5044603
:10446C00FFF7DAFFA368C01A01F06EF941EC100BEC
:10447C0010BD70B50646FFF7F1FFF06855EC104B18
:10448C0001F074F902460B462046294601F0F0FA79
:10449C0001F0BCFC00EE100A70BD10B50446FFF72D
:1044AC00BBFFA06010BDB5EE400AF1EE10FA08BFDC
:1044BC00B7EE000A80ED030A704710B504460021E0
:1044CC00007900F054FF20790121BDE8104000F084
:1044DC004EBF0079002100F04ABF000008B5024B26
:1044EC001B689B68019308BD6802030008B5024B6A
:1044FC001B68DB68019308BD6802030008B5024B1A
:10450C001B689B68019308BD2C02030008B5024B85
:10451C001B68DB68019308BD2C02030008B5024B35
:10452C001B681B69019308BD2C02030008B5024BE4
:10453C001B685B69019308BD2C02030008B5024B94
:10454C001B685B68019308BD1802030008B5024B99
:10455C001B685B69019308BD1802030008B5024B88
:10456C001B685B6C019308BD4802030008B5024B45
:10457C001B689B6C019308BD4802030008B5024BF5
:10458C001B685B69019308BD6402030008B5024B0C
:10459C001B681B68019308BD3C02030008B5024B65
:1045AC001B68DB68019308BD3C02030008B5024B95
:1045BC001B681B69019308BD3C02030008B5024B44
:1045CC001B685B69019308BD3C02030008B5024BF4
:1045DC001B689B69019308BD3C02030008B5024BA4
:1045EC001B68DB69019308BD3C02030008B5024B54
:1045FC001B681B6A019308BD3C02030008B5024B03
:10460C001B689B6A019308BD3C02030008B5024B72
:10461C001B681B6A019308BD2802030008B5024BF6
:10462C001B685B6A019308BD2802030008B5024BA6
:10463C001B689B6A019308BD2802030008B5024B56
:10464C001B68DB6A019308BD2802030008B5024B06
:10465C001B681B6B019308BD2802030008B5024BB5
:10466C001B685B6B019308BD2802030008B5024B65
:10467C001B681B6C019308BD2802030008B5024B94
:10468C001B68DB69019308BD3002030008B5024BBF
:10469C001B681B6A019308BD3002030008B5024B6E
:1046AC001B681B68019308BD4C02030008B5024B44
:1046BC001B685B68019308BD4C02030008B5024BF4
:1046CC001B681B69019308BD4C02030008B5024B23
:1046DC001B685B69019308BD4C02030008B5024BD3
:1046EC001B689B69019308BD4C02030008B5024B83
:1046FC001B68DB69019308BD4C02030008B5024B33
:10470C001B681B6A019308BD4C02030008B5024BE1
:10471C001B685B68019308BD2002030008B5024BBF
:10472C001B685B69019308BD2002030008B5034BAD
:10473C001B68D3F88830019308BD000020020300E9
:10474C0008B5034B1B68D3F89430019308BD0000E7
:10475C002002030008B5024B1B685B68019308BD7F
:10476C004002030008B5024B1B689B68019308BD0F
:10477C004002030008B5024B1B68DB68019308BDBF
:10478C004002030008B5024B1B681B69019308BD6E
:10479C004002030008B5024B1B685B69019308BD1E
:1047AC004002030008B5024B1B689B69019308BDCE
:1047BC004002030008B5024B1B68DB69019308BD7E
:1047CC004002030008B5024B1B681B6A019308BD2D
:1047DC004002030008B5024B1B681B6B019308BD1C
:1047EC004002030008B5024B1B685B6B019308BDCC
:1047FC004002030008B5024B1B689B68019308BD7F
:10480C004402030008B5024B1B68DB6B019308BD27
:10481C004402030008B5024B1B681B68019308BDDA
:10482C001C02030008B5024B1B685B68019308BDB2
:10483C001C02030008B5024B1B685B6C019308BD9E
:10484C001C020300002240681146FFF7BBBF002288
:10485C0040681146FFF7C6BF40680022FFF7BABF99
:10486C004068002281F00101FFF7A4BF00234068DB
:10487C001A461946FFF796BF002340681A46194698
:10488C00FFF788BF002240681146FFF77BBF00226C
:10489C0040681146FFF766BF406800220221FFF70F
:1048AC0069BF002340681A46FFF754BF024B03222E
:1048BC005A60024A1A60704744E6032024600D00D7
:1048CC0010B5044608462170FFF7D8FE002363603C
:1048DC00204610BD10B50446006818B1FFF7A2FFC2
:1048EC000023236010BD10B50446FFF7F3FF2046EC
:1048FC0010BD000010B5094B094C022200201A60B3
:10490C00084B2060A080A071A360FFF7FFFE20463B
:10491C00054A0649BDE8104000F0BABD58E6032030
:10492C004CE603200000FFFF30E60320F3480D00A7
:10493C0010B50446006808B1FFF718FE204610BDFC
:10494C0010B5064C002320462360FFF707FE2046D7
:10495C00034A0449BDE8104000F09ABD5CE6032010
:10496C0030E603203D490D00F8B506460D468F187C
:10497C000024BD420CD0336815F8011B9B683046EF
:10498C009847031E01DB1C44F3E7002C08BF1C46B0
:10499C002046F8BD13B50446084659B1019101F003
:1049AC00CDFA23680199DB680246204602B0BDE8C7
:1049BC001040184702B010BD08B5FFF7EBFF08BD5B
:1049CC0003689B68184738B50D210546FFF7F8FFBB
:1049DC000A2104462846FFF7F3FF204438BD38B5BA
:1049EC000546FFF7D7FF04462846FFF7ECFF2044A7
:1049FC0038BD30B58BB000238DF82430012A98BF18
:104A0C000A2209AC0D46B1FBF2F101FB125303F083
:104A1C00FF03092B94BF30333733DBB2AA4204F8BF
:104A2C00013DEFD92146FFF7B5FF0BB030BD0000BB
:104A3C002DE9F74F55EC104B06460F4610EE102A99
:104A4C0010EE100A2B46294601F082F940B1534969
:104A5C003046FFF79FFF8246504603B0BDE8F08F0B
:104A6C0025F000494E4B4FF0FF322046494601F0ED
:104A7C006FF948B94A4B4FF0FF322046494601F0D6
:104A8C0049F908B94749E3E7474B4FF060422046E4
:104A9C00294601F053F908B14449D9E7444B4FF08A
:104AAC0060422046294601F02BF90028F4D100225F
:104ABC0000232046294601F023F9D0B12D213046A0
:104ACC00FFF77EFF05F1004382461D463949DFF8AA
:104ADC00EC904FF0000B00204FF000085FFA8BF3C6
:104AEC009F4208D942464B4600F0C2FF0BF1010B26
:104AFC00F4E78246EAE722462B4600F0D9FC0D4645
:104B0C00044601F063F9804600F00EFE02460B46A7
:104B1C002046294600F0CAFC0A2204460D463046BF
:104B2C004146FFF766FF824427B123493046FFF721
:104B3C0031FF8244DFF884904FF00008013FFFB250
:104B4C00FF2F89D042464B462046294600F066FE90
:104B5C0004460D4601F012F9B0F1000B1ADA2D21C2
:104B6C003046FFF72DFFCBF1000103460A223046F9
:104B7C000193FFF73EFF019B18448244584600F016
:104B8C00E3FD02460B462046294600F08FFC044606
:104B9C000D46D3E759460023E8E700BF50600D00EF
:104BAC00FFFFEF7F54600D00FFFFEF4158600D00D9
:104BBC00FFFFEFC10000E03F5C600D0000002440EF
:104BCC0038B5044610EE100ACDB200F0CFFD41EC22
:104BDC00100B29462046BDE83840FFF729BF38B5F1
:104BEC00C9B20546FFF724FF04462846FFF7EBFE43
:104BFC00204438BD38B5044610EE100A0D4600F0BE
:104C0C00B5FD41EC100B29462046BDE83840FFF7B6
:104C1C00E6BF0000014B024A1A60704760E60320B1
:104C2C005E600D00024B1A68024B1A60704700BFA1
:104C3C00C8E5032064E603200021FFF76FBD10B523
:104C4C008368044613B1032201469847204610BDE1
:104C5C0010B50446FFF7F3FF204610BD0348044A85
:104C6C0004490023836000F013BC00BF68E60320F6
:104C7C0030E603205D4C0D00014B1860704700BFFF
:104C8C00CCE5032008B50B4B43B100F055F9036894
:104C9C001B699847002801DDAFF30080064B43B138
:104CAC0000F0C8F903681B699847002801DDAFF3D1
:104CBC00008008BD000000000000000008B5FFF7F0
:104CCC00E1FFFFF743FC014B186008BDD4E703205C
:104CDC000248034A0349121A01F0F6B800F4032003
:104CEC0004F40320B0610D0007B5002300931A46AD
:104CFC006FF07701FFF724FD03B05DF804FB0000B3
:104D0C0007B543880A2B08D0502B0BD1094B1B68D5
:104D1C004BB103B05DF804EB1847FFF7E5FF03B0A8
:104D2C005DF804FB002300931A466FF07701FFF740
:104D3C0007FDF4E77CE6032038B5124C1248134DFE
:104D4C000021FFF777FD2368AB42114B0CBF01220A
:104D5C0000221A7002D0FFF7BBFF2560FFF7EEFBB5
:104D6C00044601F0C7F80B4B13B12046AFF300809B
:104D7C0000210848FFF746FDBDE8384006480021F1
:104D8C00FFF7D4BC00F40320854C0D001E1C279AA1
:104D9C0078E60320000000000D4D0D00704710B5A3
:104DAC001821044600F079FB204610BDF0B5037DB8
:104DBC00062B8DB00E4600F104074FF0000412D004
:104DCC0000F1080515F8011D0A223046FFF711FE07
:104DDC00AF42044419D0002CF4D02E213046FFF7FA
:104DEC00EFFD0444EEE72F236A4639460A208DF87E
:104DFC000040FFF7C3FB684601F0A0F83368024699
:104E0C00DB68694630469847044620460DB0F0BD35
:104E1C0010B5054B0446112240F8043B002101F06B
:104E2C0061F8204610BD00BF88600D000346074A9C
:104E3C0010B543F8042B01F1100251F8044B43F860
:104E4C00044B9142F9D10A781A7010BD88600D009C
:104E5C0010B59DF8084044EA032343EA024242EAB3
:104E6C00016104234160037510BD13B5CB78009329
:104E7C008B784A780978FFF7EBFF02B010BD4174CC
:104E8C007047704708B50021007CFFF727FC40EA0B
:104E9C00E07008BD08B50121007CFFF71FFC40EA5B
:104EAC00E07008BD08B5007CFFF710FC20EAE0704C
:104EBC0008BD08B5007CFFF701FC20EAE07008BDD6
:104ECC0013B50446007C0191FFF700FC0028019902
:104EDC0001DC607C20B1207CFFF708FC20EAE0704C
:104EEC0002B010BD007CFFF709BC10B514210446BC
:104EFC0000F0D3FA204610BD10B54FF47A73044677
:104F0C0008460021C4E90113044B236001232074DB
:104F1C0063741146FFF7C2FB204610BD9C600D0068
:104F2C00007C0022FFF7C2BB10B5142204460021FE
:104F3C0000F0D8FF204610BD10B5104C88B003A867
:104F4C00FFF7F2FF2178BFF35B8F11F0010111D154
:104F5C0020460191FFF79BF8019958B103AA084824
:104F6C00FFF7CAFF2046FFF797F8064A06490448A0
:104F7C0000F08EFA024808B010BD00BF80E6032096
:104F8C0084E6032030E603208F4E0D0070474174F9
:104F9C00704708B5007CFFF731FB20EAE07008BDD4
:104FAC0008B5007CFFF702FB20EAE07008BD08B5ED
:104FBC00007CFFF70BFB40EAE07008BD08B5007CF5
:104FCC00FFF7FCFA40EAE07008BD007CFFF706BB77
:104FDC0037B5457C04462DB1207C03B0BDE830408C
:104FEC00FFF7DCBA007C0191FFF708FB0028019960
:104FFC00F2DC284603B030BD10B51421044600F095
:10500C004CFA204610BD000010B54FF0000C0446C1
:10501C00084611464FF47A72C4E901C2044A226070
:10502C000122207462741A46FFF7B0FA204610BDB4
:10503C00CC600D0013B50E4C2178BFF35B8F11F0D3
:10504C00010112D120460191FFF721F8019960B1BD
:10505C00084A094B0948FFF7D7FF2046FFF71CF811
:10506C00074A0849054800F013FA044802B010BD7D
:10507C0098E603209CE6032020E70320A4E7032006
:10508C0030E60320994F0D007047F8B506461546DB
:10509C000C468F18BC4206D0336814F8011B9B6871
:1050AC0030469847F6E72846F8BD007C0022FFF70B
:1050BC00ADBA007C0021FFF7B1BA007C0021FFF7EC
:1050CC00B5BA007C0021FFF7B9BA007C0021FFF7CC
:1050DC00BDBA10B51421044600F0DFF9204610BD0E
:1050EC0010B54FF47A73044608460021C4E9011345
:1050FC00034B236020741146FFF7B8FA204610BD0D
:10510C00FC600D00002240681146FFF73BBB0022FB
:10511C0040681146FFF756BB002240681146FFF766
:10512C0061BB40680022FFF755BB4068002281F04C
:10513C000101FFF73FBB002340681A461946FFF7F1
:10514C0031BB002340681A461946FFF723BB0022E7
:10515C0040681146FFF706BB406800220221FFF7AA
:10516C0009BB002340681A46FFF7F4BA024B04222D
:10517C005A60024A1A607047B8E7032024610D0098
:10518C00002340681A46FFF7E5BA40680022022166
:10519C00FFF7F0BA002240681146FFF7E3BA00228D
:1051AC0040681146FFF7EEBA002340681A461946CC
:1051BC00FFF7F0BA002340681A461946FFF7F2BA17
:1051CC004068002281F00101FFF7F4BA4068002228
:1051DC00FFF700BB002240681146FFF703BB00221B
:1051EC0040681146FFF7EEBA2DE9F043002495B064
:1051FC0016460D460746FFF70BFE214618220EA851
:10520C00009400F06FFE4023CDE90C3421466B4630
:10521C000CAA3046FFF76AF90446002846D102462C
:10522C0001216868FFF7AEFA0221804622466868C1
:10523C00FFF7A8FA009E81462146002E36D00029A1
:10524C0034D17368022B03D00A2B0BD0F669F4E728
:10525C00B8F1000F04D0716938460431FFF705FE30
:10526C004146F3E7B9F1000F01D14946EEE7746905
:10527C00102201A800F036FE06238DF8143001AD83
:10528C0004F108031834186859682A4603C2083315
:10529C00A3421546F7D101A906A807ADFFF7C6FD35
:1052AC000FCD3C1D0FC42B682370DEE70098FFF771
:1052BC0015F9384615B0BDE8F0830000024B034ADF
:1052CC001A6000225A607047C0E7032058610D0035
:1052DC00232813B502D9002002B010BDA0F10B0396
:1052EC00022B1AD8174C2178BFF35B8F11F00101F8
:1052FC000BD120460191FEF7CAFE019928B1124844
:10530C00FFF7DEFA2046FEF7C7FE0F4B1878FFF7C3
:10531C00BDF90028DFD10120DEE7012809D800F013
:10532C008FF80021007CFFF799F980F00100C0B2E2
:10533C00D2E709380128EED8FFF77CFE007CFFF796
:10534C0055F9F2E7C8E70320CCE70320232838B54A
:10535C0004460D460AD8FF2908D0FFF7B9FF28B13B
:10536C0029462046BDE83840FFF7C8B838BD38B5E7
:10537C0004460D46FFF7CAF8FF2810D0062804D8BB
:10538C004D2323FA00F0C30709D42046FFF7A0FFF2
:10539C0028B129462046BDE83840FFF7BFB838BDD4
:1053AC0010B50446FFF7B2F8031FDBB2012B08D986
:1053BC002046FFF78DFF20B12046BDE81040FFF7D7
:1053CC00B5B8002010BD2DE9F041002590462C46C3
:1053DC000E46074630460121FFF7C9FF64B2384636
:1053EC00B8F1000F0ED1FFF7DBFFA84004430021FA
:1053FC0030460135FFF7BBFF082DE4B2EAD1204659
:10540C00BDE8F081FFF7CCFFC5F107039840EDE74D
:10541C0038B500232025438014230446038085607F
:10542C0005610649284600F03AF8044960602846B0
:10543C0000F035F8E060204638BD00BF84610D00F7
:10544C0030B50F4D2978BFF35B8F11F0010487B095
:10545C0013D12846FEF71BFE78B101A8FFF7D8FF41
:10546C0001AA21460748FFF73BFE2846FEF714FE2B
:10547C00054A0649034800F00BF8024807B030BD56
:10548C00D8E70320DCE7032030E6032095500D001D
:10549C000B460146184600F009BDFEF7F6BDFEF7B7
:1054AC00F2BD000081F0004102E000BF83F0004338
:1054BC0030B54FEA41044FEA430594EA050F08BFA3
:1054CC0090EA020F1FBF54EA000C55EA020C7FEA67
:1054DC00645C7FEA655C00F0E2804FEA5454D4EBE4
:1054EC005555B8BF6D420CDD2C4480EA020281EAAE
:1054FC00030382EA000083EA010180EA020281EAE6
:10550C000303362D88BF30BD11F0004F4FEA013137
:10551C004FF4801C4CEA113102D0404261EB410146
:10552C0013F0004F4FEA03334CEA133302D05242CC
:10553C0063EB430394EA050F00F0A780A4F1010488
:10554C00D5F1200E0DDB02FA0EFC22FA05F28018C2
:10555C0041F1000103FA0EF2801843FA05F35941A8
:10556C000EE0A5F120050EF1200E012A03FA0EFC27
:10557C0028BF4CF0020C43FA05F3C01851EBE37151
:10558C0001F0004507D54FF0000EDCF1000C7EEB6E
:10559C0000006EEB0101B1F5801F1BD3B1F5001FAC
:1055AC000CD349085FEA30004FEA3C0C04F10104CB
:1055BC004FEA445212F5800F80F09A80BCF1004FF4
:1055CC0008BF5FEA500C50F1000041EB045141EA76
:1055DC00050130BD5FEA4C0C404141EB0101013C3F
:1055EC0028BFB1F5801FE9D291F0000F04BF01462E
:1055FC000020B1FA81F308BF2033A3F10B03B3F100
:10560C0020020CDA0C3208DD02F1140CC2F10C028F
:10561C0001FA0CF021FA02F10CE002F11402D8BFED
:10562C00C2F1200C01FA02F120FA0CFCDCBF41EAB9
:10563C000C019040E41AA2BF01EB0451294330BD88
:10564C006FEA04041F3C1CDA0C340EDC04F1140465
:10565C00C4F1200220FA04F001FA02F340EA03003C
:10566C0021FA04F345EA030130BDC4F10C04C4F182
:10567C00200220FA02F001FA04F340EA0300294662
:10568C0030BD21FA04F0294630BD94F0000F83F4AC
:10569C00801306BF81F480110134013D4EE77FEA8F
:1056AC00645C18BF7FEA655C29D094EA050F08BFDB
:1056BC0090EA020F05D054EA000C04BF19461046BC
:1056CC0030BD91EA030F1EBF0021002030BD5FEA00
:1056DC00545C05D14000494128BF41F0004130BD28
:1056EC0014F580043CBF01F5801130BD01F000457C
:1056FC0045F0FE4141F470014FF0000030BD7FEAEF
:10570C00645C1ABF194610467FEA655C1CBF0B46E9
:10571C00024650EA013406BF52EA033591EA030F00
:10572C0041F4002130BD00BF90F0000F04BF0021F8
:10573C00704730B54FF4806404F132044FF000052B
:10574C004FF0000150E700BF90F0000F04BF0021A4
:10575C00704730B54FF4806404F1320410F000450A
:10576C0048BF40424FF000013EE700BF42004FEA05
:10577C00E2014FEA31014FEA02701FBF12F07F4382
:10578C0093F07F4F81F06051704732F07F4208BF39
:10579C00704793F07F4F04BF41F40021704730B540
:1057AC004FF4607401F0004521F000411CE700BF8C
:1057BC0050EA010208BF704730B54FF000050AE00F
:1057CC0050EA010208BF704730B511F0004502D510
:1057DC00404261EB41014FF4806404F132045FEA12
:1057EC00915C3FF4D8AE4FF003025FEADC0C18BFBB
:1057FC0003325FEADC0C18BF033202EBDC02C2F1AD
:10580C00200300FA03FC20FA02F001FA03FE40EA3E
:10581C000E0021FA02F11444BDE600BF70B54FF042
:10582C00FF0C4CF4E06C1CEA11541DBF1CEA135520
:10583C0094EA0C0F95EA0C0F00F0DEF82C4481EA88
:10584C00030621EA4C5123EA4C5350EA013518BFA8
:10585C0052EA033541F4801143F4801338D0A0FB95
:10586C0002CE4FF00005E1FB02E506F00042E0FB42
:10587C0003E54FF00006E1FB03569CF0000F18BF48
:10588C004EF0010EA4F1FF04B6F5007F64F54074F0
:10589C0004D25FEA4E0E6D4146EB060642EAC62183
:1058AC0041EA55514FEAC52040EA5E504FEACE2EF0
:1058BC00B4F1FD0C88BFBCF5E06F1ED8BEF1004FF3
:1058CC0008BF5FEA500E50F1000041EB045170BD6F
:1058DC0006F0004646EA010140EA020081EA0301B3
:1058EC00B4EB5C04C2BFD4EB0C0541EA045170BDAF
:1058FC0041F480114FF0000E013C00F3AB8014F129
:10590C00360FDEBF002001F0004170BDC4F1000471
:10591C00203C35DA0C341BDC04F11404C4F12005F2
:10592C0000FA05F320FA04F001FA05F240EA02004D
:10593C0001F0004221F0004110EBD37021FA04F683
:10594C0042EB06015EEA430E08BF20EAD37070BD3D
:10595C00C4F10C04C4F1200500FA04F320FA05F09C
:10596C0001FA04F240EA020001F0004110EBD3709E
:10597C0041F100015EEA430E08BF20EAD37070BD0E
:10598C00C4F1200500FA05F24EEA020E20FA04F3E7
:10599C0001FA05F243EA020321FA04F001F0004196
:1059AC0021FA04F220EA020000EBD3705EEA430E07
:1059BC0008BF20EAD37070BD94F0000F0FD101F036
:1059CC000046400041EB010111F4801F08BF013C6F
:1059DC00F7D041EA060195F0000F18BF704703F0AD
:1059EC000046520043EB030313F4801F08BF013D34
:1059FC00F7D043EA0603704794EA0C0F0CEA1355F0
:105A0C0018BF95EA0C0F0CD050EA410618BF52EAA9
:105A1C004306D1D181EA030101F000414FF00000AF
:105A2C0070BD50EA410606BF1046194652EA4306BD
:105A3C0019D094EA0C0F02D150EA013613D195EA31
:105A4C000C0F05D152EA03361CBF104619460AD179
:105A5C0081EA030101F0004141F0FE4141F4700183
:105A6C004FF0000070BD41F0FE4141F4780170BD73
:105A7C0070B54FF0FF0C4CF4E06C1CEA11541DBFD8
:105A8C001CEA135594EA0C0F95EA0C0F00F0A7F8DA
:105A9C00A4EB050481EA030E52EA03354FEA013107
:105AAC0000F088804FEA03334FF0805545EA13131A
:105ABC0043EA12634FEA022245EA111545EA1065E2
:105ACC004FEA00260EF000419D4208BF964244F179
:105ADC00FD0404F5407402D25B084FEA3202B61A98
:105AEC0065EB03055B084FEA32024FF480104FF46C
:105AFC00002CB6EB020E75EB030E22BFB61A7546E0
:105B0C0040EA0C005B084FEA3202B6EB020E75EB72
:105B1C00030E22BFB61A754640EA5C005B084FEADA
:105B2C003202B6EB020E75EB030E22BFB61A7546A7
:105B3C0040EA9C005B084FEA3202B6EB020E75EBB2
:105B4C00030E22BFB61A754640EADC0055EA060E73
:105B5C0018D04FEA051545EA16754FEA06164FEAB6
:105B6C00C30343EA52734FEAC2025FEA1C1CC0D162
:105B7C0011F4801F0BD141EA00014FF000004FF0EF
:105B8C00004CB6E711F4801F04BF01430020B4F1B0
:105B9C00FD0C88BFBCF5E06F3FF6AFAEB5EB030C68
:105BAC0004BFB6EB020C5FEA500C50F1000041EB65
:105BBC00045170BD0EF0004E4EEA113114EB5C0432
:105BCC00C2BFD4EB0C0541EA045170BD41F4801105
:105BDC004FF0000E013C90E645EA060E8DE60CEA0D
:105BEC00135594EA0C0F08BF95EA0C0F3FF43BAF2A
:105BFC0094EA0C0F0AD150EA01347FF434AF95EAE1
:105C0C000C0F7FF425AF104619462CE795EA0C0FC4
:105C1C0006D152EA03353FF4FDAE1046194622E791
:105C2C0050EA410618BF52EA43067FF4C5AE50EA6B
:105C3C0041047FF40DAF52EA43057FF4EBAE12E75B
:105C4C004FF0FF3C06E000BF4FF0010C02E000BF3C
:105C5C004FF0010C4DF804CD4FEA410C7FEA6C5C1F
:105C6C004FEA430C18BF7FEA6C5C1BD001B050EAC2
:105C7C00410C0CBF52EA430C91EA030F02BF90EAAD
:105C8C00020F0020704710F1000F91EA030F58BF6C
:105C9C00994208BF90422CBFD8176FEAE37040F0CE
:105CAC00010070474FEA410C7FEA6C5C02D150EA6C
:105CBC00013C07D14FEA430C7FEA6C5CD6D152EA27
:105CCC00033CD3D05DF8040B704700BF84461046EC
:105CDC0062468C461946634600E000BF01B5FFF7EB
:105CEC00B7FF002848BF10F1000F01BD4DF808EDBB
:105CFC00FFF7F4FF0CBF012000205DF808FB00BF8C
:105D0C004DF808EDFFF7EAFF34BF012000205DF8E5
:105D1C0008FB00BF4DF808EDFFF7E0FF94BF012032
:105D2C0000205DF808FB00BF4DF808EDFFF7CEFF33
:105D3C0094BF012000205DF808FB00BF4DF808ED72
:105D4C00FFF7C4FF34BF012000205DF808FB00BF43
:105D5C004FEA410C7FEA6C5C02D150EA013C0AD15B
:105D6C004FEA430C7FEA6C5C02D152EA033C02D14D
:105D7C004FF0000070474FF0010070474FEA4102AE
:105D8C0012F5001215D211D56FF47873B3EB625281
:105D9C0012D94FEAC12343F0004343EA505311F0A8
:105DAC00004F23FA02F018BF404270474FF000003A
:105DBC00704750EA013005D111F0004008BF6FF078
:105DCC00004070474FF00000704700BF4A0011D2EE
:105DDC0012F5001211D20DD56FF47873B3EB625239
:105DEC000ED44FEAC12343F0004343EA505323FA45
:105DFC0002F070474FF00000704750EA013002D1BA
:105E0C004FF0FF3070474FF0000070474FEA4102EF
:105E1C00B2F1E04324BFB3F5001CDCF1FE5C0DD9FC
:105E2C0001F0004C4FEAC0024CEA5070B2F1004F46
:105E3C0040EB830008BF20F00100704711F0804F49
:105E4C0021D113F13872BCBF01F00040704741F40E
:105E5C0080114FEA5252C2F11802C2F1200C10FA12
:105E6C000CF320FA02F018BF40F001004FEAC123F6
:105E7C004FEAD32303FA0CFC40EA0C0023FA02F39A
:105E8C004FEA4303CCE77FEA625307D150EA013370
:105E9C001EBF4FF0FE4040F44000704701F0004040
:105EAC0040F0FE4040F40000704700BF10B5054CB8
:105EBC0013462CB10A4601460220AFF3008010BDF8
:105ECC002046FCE7000000000A44914200F1FF3339
:105EDC0000D1704710B511F8014B03F8014F9142F6
:105EEC00F9D110BD02440346934200D1704703F828
:105EFC00011BF9E738B50D4B1D68AB6B04467BB93C
:105F0C001820FEF787FC0A4A0A4BA863C0E9002355
:105F1C00094B83600B23838101220023C0E90423F6
:105F2C00AB6B00221C615A6138BD00BFCCE503206D
:105F3C000E33CDAB34126DE6ECDE0500034613F8E0
:105F4C00012B002AFBD1181A013870471D400D0097
:105F5C0059400D0081400D0085400D0000000000EF
:105F6C006F6E652072656164696E673A0900097C21
:105F7C0020617665726167653A090048583731319E
:105F8C002044656D6F004265666F726520736574A1
:105F9C0074696E6720757020746865207363616C1A
:105FAC00653A00726561643A2009090072656164A2
:105FBC0020617665726167653A200909006765742E
:105FCC002076616C75653A20090900676574207547
:105FDC006E6974733A200909004166746572207306
:105FEC00657474696E6720757020746865207363BE
:105FFC00616C653A0052656164696E67733A0000C2
:10600C00000000000000000021430D0023430D00A0
:10601C000000000000000000AF480D00A5480D0076
:10602C009B480D0091480D0085480D0079480D00E6
:10603C006D480D0065480D005B480D0051480D0082
:10604C00F5510D006E616E00696E66006F7666002C
:10605C002E006170700025592D256D2D2564542559
:10606C00483A254D3A2553257A0061736374696D5E
:10607C00650000000000000000000000B94D0D009C
:10608C00A94D0D00AB4D0D000000000000000000FC
:10609C008F4E0D00F74E0D00CD4E0D0075490D00C5
:1060AC00BF4E0D00914E0D00A14E0D00F14E0D0096
:1060BC00B14E0D008B4E0D000000000000000000E2
:1060CC00994F0D0005500D00DD4F0D0075490D0069
:1060DC00AD4F0D00C94F0D00BB4F0D00D74F0D003C
:1060EC009B4F0D009F4F0D000000000000000000B2
:1060FC0095500D00DF500D00B7500D0097500D005E
:10610C00BF500D00C7500D00CF500D00D7500D00E3
:10611C0000000000000000006F510D0065510D00E3
:10612C005B510D0011510D004F510D0043510D00ED
:10613C0037510D002F510D0025510D001B510D0035
:10614C00F5510D0000000000000000008D510D0005
:10615C0097510D00A1510D00AB510D00B5510D0023
:10616C00C1510D00CD510D00D9510D00E1510D0063
:10617C00EB510D00F5510D0000000000F5420D0033
:10618C00B9480D0001490D004D490D00214C0D0081
:10619C00314C0D00694C0D0079510D00C9520D00A8
:0461AC0000000000EF
:0461B00000000000EB
:1061B40076600D00D0E50320000000000000000020
:1061C40000000000000000000000000000000000CB
:1061D40000000000000000000000000000000000BB
:1061E40000000000000000000000000000000000AB
:1061F400000000000000000000000000000000009B
:10620400000000000000000000000000000000008A
:08621400000000000000000082
:10621C00FFFFFFFF00000102030405060708090A3F
:10622C000B0C0D0E0F101112131415161718191A3A
:08623C001B1C1D1E1F20280081
:046244007856341242
:04000003D000401CCD
:00000001FF
